{
  "contractName": "Movie",
  "abi": [
    {
      "constant": true,
      "inputs": [
        {
          "name": "",
          "type": "address"
        }
      ],
      "name": "audience",
      "outputs": [
        {
          "name": "",
          "type": "bool"
        }
      ],
      "payable": false,
      "stateMutability": "view",
      "type": "function"
    },
    {
      "constant": true,
      "inputs": [],
      "name": "movieCount",
      "outputs": [
        {
          "name": "",
          "type": "uint256"
        }
      ],
      "payable": false,
      "stateMutability": "view",
      "type": "function"
    },
    {
      "constant": true,
      "inputs": [
        {
          "name": "",
          "type": "uint256"
        }
      ],
      "name": "movie",
      "outputs": [
        {
          "name": "id",
          "type": "uint256"
        },
        {
          "name": "name",
          "type": "string"
        },
        {
          "name": "count_v",
          "type": "uint256"
        }
      ],
      "payable": false,
      "stateMutability": "view",
      "type": "function"
    },
    {
      "inputs": [],
      "payable": false,
      "stateMutability": "nonpayable",
      "type": "constructor"
    },
    {
      "anonymous": false,
      "inputs": [
        {
          "indexed": true,
          "name": "_movieId",
          "type": "uint256"
        }
      ],
      "name": "movieEvent",
      "type": "event"
    },
    {
      "constant": false,
      "inputs": [
        {
          "name": "_movieId",
          "type": "uint256"
        }
      ],
      "name": "vote",
      "outputs": [],
      "payable": false,
      "stateMutability": "nonpayable",
      "type": "function"
    }
  ],
  "bytecode": "0x608060405234801561001057600080fd5b5061005e6040805190810160405280600b81526020017f446173682026204c696c7900000000000000000000000000000000000000000081525061014a640100000000026401000000009004565b6100ab6040805190810160405280601181526020017f416674657220576520436f6c6c6964656400000000000000000000000000000081525061014a640100000000026401000000009004565b6100f86040805190810160405280600681526020017f467265616b79000000000000000000000000000000000000000000000000000081525061014a640100000000026401000000009004565b6101456040805190810160405280601481526020017f412043696e6472656c6c6127732053746f72792000000000000000000000000081525061014a640100000000026401000000009004565b610265565b6001600054016000819055506060604051908101604052806000548152602001828152602001600081525060026000805481526020019081526020016000206000820151816000015560208201518160010190805190602001906101af9291906101c0565b506040820151816002015590505050565b828054600181600116156101000203166002900490600052602060002090601f016020900481019282601f1061020157805160ff191683800117855561022f565b8280016001018555821561022f579182015b8281111561022e578251825591602001919060010190610213565b5b50905061023c9190610240565b5090565b61026291905b8082111561025e576000816000905550600101610246565b5090565b90565b610413806102746000396000f300608060405260043610610062576000357c0100000000000000000000000000000000000000000000000000000000900463ffffffff1680630121b93f14610067578063161bee4714610094578063a1daf326146100ef578063d87ec4171461011a575b600080fd5b34801561007357600080fd5b50610092600480360381019080803590602001909291905050506101ce565b005b3480156100a057600080fd5b506100d5600480360381019080803573ffffffffffffffffffffffffffffffffffffffff1690602001909291905050506102ff565b604051808215151515815260200191505060405180910390f35b3480156100fb57600080fd5b5061010461031f565b6040518082815260200191505060405180910390f35b34801561012657600080fd5b5061014560048036038101908080359060200190929190505050610325565b6040518084815260200180602001838152602001828103825284818151815260200191508051906020019080838360005b83811015610191578082015181840152602081019050610176565b50505050905090810190601f1680156101be5780820380516001836020036101000a031916815260200191505b5094505050505060405180910390f35b600160003373ffffffffffffffffffffffffffffffffffffffff1673ffffffffffffffffffffffffffffffffffffffff16815260200190815260200160002060009054906101000a900460ff1615151561022757600080fd5b60008111801561023957506000548111155b151561024457600080fd5b60018060003373ffffffffffffffffffffffffffffffffffffffff1673ffffffffffffffffffffffffffffffffffffffff16815260200190815260200160002060006101000a81548160ff02191690831515021790555060016002600083815260200190815260200160002060020154016002600083815260200190815260200160002060020181905550807f11ea5a4884e88c8b38e0f1c8cb53bc0300d1279b14bee52f6194c45fd7f9f46860405160405180910390a250565b60016020528060005260406000206000915054906101000a900460ff1681565b60005481565b6002602052806000526040600020600091509050806000015490806001018054600181600116156101000203166002900480601f0160208091040260200160405190810160405280929190818152602001828054600181600116156101000203166002900480156103d75780601f106103ac576101008083540402835291602001916103d7565b820191906000526020600020905b8154815290600101906020018083116103ba57829003601f168201915b50505050509080600201549050835600a165627a7a723058201ccb099b32d60085ce581e6db4d23b3f24c8eadf095244513527a6901199783e0029",
  "source": "pragma solidity 0.4.25;\n\ncontract Movie {\n    struct Movie {\n        uint id;\n        string name;\n        uint count_v;\n    }\n\n    \n    uint public movieCount;\n    mapping(address => bool) public audience;\n    mapping(uint => Movie) public movie;\n    event movieEvent (\n        uint indexed _movieId\n    );\n\n    constructor () public {\n        addMovie(\"Dash & Lily\");\n        addMovie(\"After We Collided\");\n        addMovie(\"Freaky\");\n        addMovie(\"A Cindrella's Story \");\n    }\n\n\n    function vote (uint _movieId) public {\n       \n        require(!audience[msg.sender]);\n        require(_movieId > 0 && _movieId <= movieCount);\n        audience[msg.sender] = true;\n        movie[_movieId].count_v =movie[_movieId].count_v+1;\n        emit movieEvent(_movieId);\n    }\n    function addMovie (string _name) private {\n        movieCount=movieCount+ 1;\n        movie[movieCount] = Movie(movieCount, _name, 0);\n    }\n\n    \n}\n",
  "sourcePath": "C:/Users/geeth/Desktop/MovieDapp/contracts/Movie.sol",
  "compiler": {
    "name": "solc",
    "version": "0.4.25+commit.59dbf8f1.Emscripten.clang"
  },
  "schemaVersion": "3.3.2",
  "updatedAt": "2020-12-10T01:41:18.060Z",
  "networkType": "ethereum",
  "devdoc": {
    "methods": {}
  },
  "userdoc": {
    "methods": {}
  }
}